:020000020000FC
:100000000EC071C079C018957AC0189518951895CA
:100010001895189518951895189518951895F89499
:100020000FED0DBF0024112413942224FF27EE2787
:1000300055D0C498C398BA98B898C29AC09AB99A39
:10004000BC9ABB9AC19A00E60BBF01E005BB01E078
:1000500005BF07E000BF04E009BF39D0C398C49AC8
:100060004424789411D0FA3531F4401461F0C398E7
:10007000C49A442408C0FA3031F4411421F0C498E1
:10008000C39A412C00C0EECF0E2F0138A8F00638DD
:1000900010F4FAE011C0093B78F00D3B10F4FAE5DA
:1000A0000BC00E3C48F0023D10F4F8E705C0093ED5
:1000B00018F00D3E08F4F8E7089505E01FE022EF80
:1000C0002A95F1F71A95E1F70A95D1F708950BE013
:1000D00013E61A95F1F70A95E1F7089500E806BDD1
:1000E00000E006BD08953FB63FB50FBC201409F4EB
:1000F000E32F22243FBE18953FB63FBE18953FB66A
:0C010000239409F42A943FBE189508953A
:00000001FF
